:020000040000FA
:02000000562880
:040002000034003492
:08000800272882077E340C3426
:10001000B6349E34CC34DA34FA340E34FE34DE3462
:10002000EE34F8347234BC34F234E23482070134F2
:10003000023403340A340434053406340B340734F0
:10004000083409340C340F3400340E340D34EA20F3
:100050000B1933288B182D2854288B103E08031DAC
:1000600054283E145428833081000B11A80B5428C7
:100070000530A8002E14A90B40280530A9002F1424
:10008000AA0B4A280A30AA003014AB0B4A281930B0
:10009000AB003114AC0B4F286430AC003214AD0B04
:1000A0005428FA30AD003314F020090083160130D3
:1000B0008500860087018901F03088004030043ACD
:1000C00081008E309F00831281309F008330810039
:1000D0000530A8000530A9000A30AA006430AC0041
:1000E000FA30AD000830BC006430CE00D301850189
:1000F00086010130870088018901BF01BD01BE0171
:100100008B100B110B168B168B172E1C89282E109B
:1001100000002F1CBF282F1005213D18BF28662185
:100120003F0F9328BF283D143708C300C201643035
:10013000C500C401FF214708C3004608C200F321DF
:100140003508C3003408C2004708C5004608C4008B
:10015000E2214708C3004608C200F3214708B50062
:100160004608B4003F08C300C2013508C500340882
:10017000C400D2214708B5004608B4002421301C31
:10018000C32830100000311CC72831100000321C79
:10019000D52832103D10531CCE28D228870D871B3E
:1001A0005314D528870C07185310331CD828331044
:1001B00085285330A300FA30A20000000000A20BF3
:1001C000DD28A30BDB2808008A01052008008A012E
:1001D00016200800CB00030ECC000A08CD00080052
:1001E0004D088A004C0E8300CB0E4B0E0800BB005E
:1001F000013006053B06860008001F151F19FE2862
:100200001E08A6001E08A7000800BC1D0D293708FF
:10021000E420F7206121BC0C08003C1D152938089A
:10022000E420F7206121BC0C0800BC1C1D29390802
:10023000E420F7206121BC0C08003A08E420F720F4
:1002400061210830BC000800B6012730C40010301E
:10025000C5003408C2003508C300E221031C36295A
:100260004608C2004708C300B60A2D29B70103306B
:10027000C400E830C5003408C2003508C300E221DC
:10028000031C48294608C2004708C300B70A3F2993
:10029000B8010030C4006430C500E221031C5629B7
:1002A0004608C2004708C300B80A4D29B9010A3000
:1002B0004302031C5E29C300B90A57294308BA0048
:1002C0000800F03008053C04880008000030C00039
:1002D000081C6E298621031D8A2996290430C00036
:1002E000881C76298621031D8A2996290830C0009A
:1002F000081D7E298621031D8A2996290C30C000FD
:10030000881D96298621031D8A299629F030080523
:10031000C1000800411A0030C11A0130411B0230EF
:10032000C11B03304007E720BF009829FF30BF0002
:10033000080006180800BE1C9F29BE010800BE0D5B
:100340000800D201D101D001CF014E1A5214CE19AA
:1003500051144E1950144E184F145208D10650081B
:10036000CF065108CF060310CE0C4F18CE17080049
:100370002008C3002108C2000130C500C401D221F9
:100380004708A0004608A10008002008C300210873
:10039000C2000130C500C401E2214708A0004608A0
:1003A000A1000800C601C80143084507C7000301B2
:1003B000031801304207031848144407C6004818C0
:1003C00003140800C601481445084302C70003018E
:1003D000031C01304202C600031C48104408C60238
:1003E000481C031008000A30C900C401C501D2210D
:1003F0004608C4004708C500C90BF7290800C60114
:100400004508CA00C5014A1C082A4308C500C401A2
:100410002522CA1C0C2A2B2225224A1D102A2B22F7
:100420002522CA1D142A2B2225224A1E182A2B22D5
:100430002522CA1E1C2A2B2225224A1F202A2B22B3
:100440002522CA1F242AD22108000310C20DC31B73
:10045000C20AC30D0800D2214608C4004708C500DF
:02046000080092
:02400E00713F00
:00000001FF
